{
  "contractName": "RefinableToken",
  "abi": [
    {
      "inputs": [],
      "stateMutability": "nonpayable",
      "type": "constructor"
    },
    {
      "anonymous": false,
      "inputs": [
        {
          "indexed": true,
          "internalType": "address",
          "name": "owner",
          "type": "address"
        },
        {
          "indexed": true,
          "internalType": "address",
          "name": "spender",
          "type": "address"
        },
        {
          "indexed": false,
          "internalType": "uint256",
          "name": "value",
          "type": "uint256"
        }
      ],
      "name": "Approval",
      "type": "event"
    },
    {
      "anonymous": false,
      "inputs": [
        {
          "indexed": true,
          "internalType": "address",
          "name": "previousOwner",
          "type": "address"
        },
        {
          "indexed": true,
          "internalType": "address",
          "name": "newOwner",
          "type": "address"
        }
      ],
      "name": "OwnershipTransferred",
      "type": "event"
    },
    {
      "anonymous": false,
      "inputs": [
        {
          "indexed": true,
          "internalType": "address",
          "name": "from",
          "type": "address"
        },
        {
          "indexed": true,
          "internalType": "address",
          "name": "to",
          "type": "address"
        },
        {
          "indexed": false,
          "internalType": "uint256",
          "name": "value",
          "type": "uint256"
        }
      ],
      "name": "Transfer",
      "type": "event"
    },
    {
      "inputs": [],
      "name": "_decimals",
      "outputs": [
        {
          "internalType": "uint8",
          "name": "",
          "type": "uint8"
        }
      ],
      "stateMutability": "view",
      "type": "function"
    },
    {
      "inputs": [],
      "name": "_name",
      "outputs": [
        {
          "internalType": "string",
          "name": "",
          "type": "string"
        }
      ],
      "stateMutability": "view",
      "type": "function"
    },
    {
      "inputs": [],
      "name": "_symbol",
      "outputs": [
        {
          "internalType": "string",
          "name": "",
          "type": "string"
        }
      ],
      "stateMutability": "view",
      "type": "function"
    },
    {
      "inputs": [],
      "name": "owner",
      "outputs": [
        {
          "internalType": "address",
          "name": "",
          "type": "address"
        }
      ],
      "stateMutability": "view",
      "type": "function"
    },
    {
      "inputs": [],
      "name": "renounceOwnership",
      "outputs": [],
      "stateMutability": "nonpayable",
      "type": "function"
    },
    {
      "inputs": [
        {
          "internalType": "address",
          "name": "newOwner",
          "type": "address"
        }
      ],
      "name": "transferOwnership",
      "outputs": [],
      "stateMutability": "nonpayable",
      "type": "function"
    },
    {
      "inputs": [],
      "name": "getOwner",
      "outputs": [
        {
          "internalType": "address",
          "name": "",
          "type": "address"
        }
      ],
      "stateMutability": "view",
      "type": "function"
    },
    {
      "inputs": [],
      "name": "decimals",
      "outputs": [
        {
          "internalType": "uint8",
          "name": "",
          "type": "uint8"
        }
      ],
      "stateMutability": "view",
      "type": "function"
    },
    {
      "inputs": [],
      "name": "symbol",
      "outputs": [
        {
          "internalType": "string",
          "name": "",
          "type": "string"
        }
      ],
      "stateMutability": "view",
      "type": "function"
    },
    {
      "inputs": [],
      "name": "name",
      "outputs": [
        {
          "internalType": "string",
          "name": "",
          "type": "string"
        }
      ],
      "stateMutability": "view",
      "type": "function"
    },
    {
      "inputs": [],
      "name": "totalSupply",
      "outputs": [
        {
          "internalType": "uint256",
          "name": "",
          "type": "uint256"
        }
      ],
      "stateMutability": "view",
      "type": "function"
    },
    {
      "inputs": [
        {
          "internalType": "address",
          "name": "account",
          "type": "address"
        }
      ],
      "name": "balanceOf",
      "outputs": [
        {
          "internalType": "uint256",
          "name": "",
          "type": "uint256"
        }
      ],
      "stateMutability": "view",
      "type": "function"
    },
    {
      "inputs": [
        {
          "internalType": "address",
          "name": "recipient",
          "type": "address"
        },
        {
          "internalType": "uint256",
          "name": "amount",
          "type": "uint256"
        }
      ],
      "name": "transfer",
      "outputs": [
        {
          "internalType": "bool",
          "name": "",
          "type": "bool"
        }
      ],
      "stateMutability": "nonpayable",
      "type": "function"
    },
    {
      "inputs": [
        {
          "internalType": "address",
          "name": "owner",
          "type": "address"
        },
        {
          "internalType": "address",
          "name": "spender",
          "type": "address"
        }
      ],
      "name": "allowance",
      "outputs": [
        {
          "internalType": "uint256",
          "name": "",
          "type": "uint256"
        }
      ],
      "stateMutability": "view",
      "type": "function"
    },
    {
      "inputs": [
        {
          "internalType": "address",
          "name": "spender",
          "type": "address"
        },
        {
          "internalType": "uint256",
          "name": "amount",
          "type": "uint256"
        }
      ],
      "name": "approve",
      "outputs": [
        {
          "internalType": "bool",
          "name": "",
          "type": "bool"
        }
      ],
      "stateMutability": "nonpayable",
      "type": "function"
    },
    {
      "inputs": [
        {
          "internalType": "address",
          "name": "sender",
          "type": "address"
        },
        {
          "internalType": "address",
          "name": "recipient",
          "type": "address"
        },
        {
          "internalType": "uint256",
          "name": "amount",
          "type": "uint256"
        }
      ],
      "name": "transferFrom",
      "outputs": [
        {
          "internalType": "bool",
          "name": "",
          "type": "bool"
        }
      ],
      "stateMutability": "nonpayable",
      "type": "function"
    },
    {
      "inputs": [
        {
          "internalType": "address",
          "name": "spender",
          "type": "address"
        },
        {
          "internalType": "uint256",
          "name": "addedValue",
          "type": "uint256"
        }
      ],
      "name": "increaseAllowance",
      "outputs": [
        {
          "internalType": "bool",
          "name": "",
          "type": "bool"
        }
      ],
      "stateMutability": "nonpayable",
      "type": "function"
    },
    {
      "inputs": [
        {
          "internalType": "address",
          "name": "spender",
          "type": "address"
        },
        {
          "internalType": "uint256",
          "name": "subtractedValue",
          "type": "uint256"
        }
      ],
      "name": "decreaseAllowance",
      "outputs": [
        {
          "internalType": "bool",
          "name": "",
          "type": "bool"
        }
      ],
      "stateMutability": "nonpayable",
      "type": "function"
    },
    {
      "inputs": [
        {
          "internalType": "uint256",
          "name": "amount",
          "type": "uint256"
        }
      ],
      "name": "burn",
      "outputs": [],
      "stateMutability": "nonpayable",
      "type": "function"
    },
    {
      "inputs": [
        {
          "internalType": "address",
          "name": "account",
          "type": "address"
        },
        {
          "internalType": "uint256",
          "name": "amount",
          "type": "uint256"
        }
      ],
      "name": "burnFrom",
      "outputs": [],
      "stateMutability": "nonpayable",
      "type": "function"
    }
  ],
  "bytecode": "0x60806040523480156200001157600080fd5b506000620000246200024360201b60201c565b9050806000806101000a81548173ffffffffffffffffffffffffffffffffffffffff021916908373ffffffffffffffffffffffffffffffffffffffff1602179055508073ffffffffffffffffffffffffffffffffffffffff16600073ffffffffffffffffffffffffffffffffffffffff167f8be0079c531659141344cd1fd0a4f28419497f9722a3daafe3b4186f6b6457e060405160405180910390a3506040518060400160405280600981526020017f526566696e61626c650000000000000000000000000000000000000000000000815250600690805190602001906200010f9291906200024b565b506040518060400160405280600481526020017f46494e4500000000000000000000000000000000000000000000000000000000815250600590805190602001906200015d9291906200024b565b506012600460006101000a81548160ff021916908360ff1602179055506b019d971e4fe8401e74000000600381905550600354600160003373ffffffffffffffffffffffffffffffffffffffff1673ffffffffffffffffffffffffffffffffffffffff168152602001908152602001600020819055503373ffffffffffffffffffffffffffffffffffffffff16600073ffffffffffffffffffffffffffffffffffffffff167fddf252ad1be2c89b69c2b068fc378daa952ba7f163c4a11628f55a4df523b3ef6003546040516200023591906200030c565b60405180910390a362000398565b600033905090565b828054620002599062000333565b90600052602060002090601f0160209004810192826200027d5760008555620002c9565b82601f106200029857805160ff1916838001178555620002c9565b82800160010185558215620002c9579182015b82811115620002c8578251825591602001919060010190620002ab565b5b509050620002d89190620002dc565b5090565b5b80821115620002f7576000816000905550600101620002dd565b5090565b620003068162000329565b82525050565b6000602082019050620003236000830184620002fb565b92915050565b6000819050919050565b600060028204905060018216806200034c57607f821691505b6020821081141562000363576200036262000369565b5b50919050565b7f4e487b7100000000000000000000000000000000000000000000000000000000600052602260045260246000fd5b611ea880620003a86000396000f3fe608060405234801561001057600080fd5b506004361061012c5760003560e01c806379cc6790116100ad578063a9059cbb11610071578063a9059cbb14610335578063b09f126614610365578063d28d885214610383578063dd62ed3e146103a1578063f2fde38b146103d15761012c565b806379cc67901461028f578063893d20e8146102ab5780638da5cb5b146102c957806395d89b41146102e7578063a457c2d7146103055761012c565b806332424aa3116100f457806332424aa3146101eb578063395093511461020957806342966c681461023957806370a0823114610255578063715018a6146102855761012c565b806306fdde0314610131578063095ea7b31461014f57806318160ddd1461017f57806323b872dd1461019d578063313ce567146101cd575b600080fd5b6101396103ed565b6040516101469190611833565b60405180910390f35b61016960048036038101906101649190611603565b61047f565b6040516101769190611818565b60405180910390f35b61018761049d565b6040516101949190611955565b60405180910390f35b6101b760048036038101906101b291906115b0565b6104a7565b6040516101c49190611818565b60405180910390f35b6101d5610580565b6040516101e29190611970565b60405180910390f35b6101f3610597565b6040516102009190611970565b60405180910390f35b610223600480360381019061021e9190611603565b6105aa565b6040516102309190611818565b60405180910390f35b610253600480360381019061024e9190611643565b61065d565b005b61026f600480360381019061026a9190611543565b610671565b60405161027c9190611955565b60405180910390f35b61028d6106ba565b005b6102a960048036038101906102a49190611603565b61080d565b005b6102b36108e2565b6040516102c091906117fd565b60405180910390f35b6102d16108f1565b6040516102de91906117fd565b60405180910390f35b6102ef61091a565b6040516102fc9190611833565b60405180910390f35b61031f600480360381019061031a9190611603565b6109ac565b60405161032c9190611818565b60405180910390f35b61034f600480360381019061034a9190611603565b610a79565b60405161035c9190611818565b60405180910390f35b61036d610a97565b60405161037a9190611833565b60405180910390f35b61038b610b25565b6040516103989190611833565b60405180910390f35b6103bb60048036038101906103b69190611570565b610bb3565b6040516103c89190611955565b60405180910390f35b6103eb60048036038101906103e69190611543565b610c3a565b005b6060600680546103fc90611ab9565b80601f016020809104026020016040519081016040528092919081815260200182805461042890611ab9565b80156104755780601f1061044a57610100808354040283529160200191610475565b820191906000526020600020905b81548152906001019060200180831161045857829003601f168201915b5050505050905090565b600061049361048c610cdb565b8484610ce3565b6001905092915050565b6000600354905090565b60006104b4848484610eae565b610575846104c0610cdb565b61057085604051806060016040528060288152602001611dba60289139600260008b73ffffffffffffffffffffffffffffffffffffffff1673ffffffffffffffffffffffffffffffffffffffff1681526020019081526020016000206000610526610cdb565b73ffffffffffffffffffffffffffffffffffffffff1673ffffffffffffffffffffffffffffffffffffffff1681526020019081526020016000205461113c9092919063ffffffff16565b610ce3565b600190509392505050565b6000600460009054906101000a900460ff16905090565b600460009054906101000a900460ff1681565b60006106536105b7610cdb565b8461064e85600260006105c8610cdb565b73ffffffffffffffffffffffffffffffffffffffff1673ffffffffffffffffffffffffffffffffffffffff16815260200190815260200160002060008973ffffffffffffffffffffffffffffffffffffffff1673ffffffffffffffffffffffffffffffffffffffff168152602001908152602001600020546111a090919063ffffffff16565b610ce3565b6001905092915050565b61066e610668610cdb565b826111fe565b50565b6000600160008373ffffffffffffffffffffffffffffffffffffffff1673ffffffffffffffffffffffffffffffffffffffff168152602001908152602001600020549050919050565b6106c2610cdb565b73ffffffffffffffffffffffffffffffffffffffff1660008054906101000a900473ffffffffffffffffffffffffffffffffffffffff1673ffffffffffffffffffffffffffffffffffffffff161461074f576040517f08c379a0000000000000000000000000000000000000000000000000000000008152600401610746906118d5565b60405180910390fd5b600073ffffffffffffffffffffffffffffffffffffffff1660008054906101000a900473ffffffffffffffffffffffffffffffffffffffff1673ffffffffffffffffffffffffffffffffffffffff167f8be0079c531659141344cd1fd0a4f28419497f9722a3daafe3b4186f6b6457e060405160405180910390a360008060006101000a81548173ffffffffffffffffffffffffffffffffffffffff021916908373ffffffffffffffffffffffffffffffffffffffff160217905550565b60006108bf82604051806060016040528060248152602001611e4f60249139600260008773ffffffffffffffffffffffffffffffffffffffff1673ffffffffffffffffffffffffffffffffffffffff1681526020019081526020016000206000610875610cdb565b73ffffffffffffffffffffffffffffffffffffffff1673ffffffffffffffffffffffffffffffffffffffff1681526020019081526020016000205461113c9092919063ffffffff16565b90506108d3836108cd610cdb565b83610ce3565b6108dd83836111fe565b505050565b60006108ec6108f1565b905090565b60008060009054906101000a900473ffffffffffffffffffffffffffffffffffffffff16905090565b60606005805461092990611ab9565b80601f016020809104026020016040519081016040528092919081815260200182805461095590611ab9565b80156109a25780601f10610977576101008083540402835291602001916109a2565b820191906000526020600020905b81548152906001019060200180831161098557829003601f168201915b5050505050905090565b6000610a6f6109b9610cdb565b84610a6a85604051806060016040528060258152602001611e0860259139600260006109e3610cdb565b73ffffffffffffffffffffffffffffffffffffffff1673ffffffffffffffffffffffffffffffffffffffff16815260200190815260200160002060008a73ffffffffffffffffffffffffffffffffffffffff1673ffffffffffffffffffffffffffffffffffffffff1681526020019081526020016000205461113c9092919063ffffffff16565b610ce3565b6001905092915050565b6000610a8d610a86610cdb565b8484610eae565b6001905092915050565b60058054610aa490611ab9565b80601f0160208091040260200160405190810160405280929190818152602001828054610ad090611ab9565b8015610b1d5780601f10610af257610100808354040283529160200191610b1d565b820191906000526020600020905b815481529060010190602001808311610b0057829003601f168201915b505050505081565b60068054610b3290611ab9565b80601f0160208091040260200160405190810160405280929190818152602001828054610b5e90611ab9565b8015610bab5780601f10610b8057610100808354040283529160200191610bab565b820191906000526020600020905b815481529060010190602001808311610b8e57829003601f168201915b505050505081565b6000600260008473ffffffffffffffffffffffffffffffffffffffff1673ffffffffffffffffffffffffffffffffffffffff16815260200190815260200160002060008373ffffffffffffffffffffffffffffffffffffffff1673ffffffffffffffffffffffffffffffffffffffff16815260200190815260200160002054905092915050565b610c42610cdb565b73ffffffffffffffffffffffffffffffffffffffff1660008054906101000a900473ffffffffffffffffffffffffffffffffffffffff1673ffffffffffffffffffffffffffffffffffffffff1614610ccf576040517f08c379a0000000000000000000000000000000000000000000000000000000008152600401610cc6906118d5565b60405180910390fd5b610cd8816113a2565b50565b600033905090565b600073ffffffffffffffffffffffffffffffffffffffff168373ffffffffffffffffffffffffffffffffffffffff161415610d53576040517f08c379a0000000000000000000000000000000000000000000000000000000008152600401610d4a90611875565b60405180910390fd5b600073ffffffffffffffffffffffffffffffffffffffff168273ffffffffffffffffffffffffffffffffffffffff161415610dc3576040517f08c379a0000000000000000000000000000000000000000000000000000000008152600401610dba90611935565b60405180910390fd5b80600260008573ffffffffffffffffffffffffffffffffffffffff1673ffffffffffffffffffffffffffffffffffffffff16815260200190815260200160002060008473ffffffffffffffffffffffffffffffffffffffff1673ffffffffffffffffffffffffffffffffffffffff168152602001908152602001600020819055508173ffffffffffffffffffffffffffffffffffffffff168373ffffffffffffffffffffffffffffffffffffffff167f8c5be1e5ebec7d5bd14f71427d1e84f3dd0314c0f7b2291e5b200ac8c7c3b92583604051610ea19190611955565b60405180910390a3505050565b600073ffffffffffffffffffffffffffffffffffffffff168373ffffffffffffffffffffffffffffffffffffffff161415610f1e576040517f08c379a0000000000000000000000000000000000000000000000000000000008152600401610f1590611855565b60405180910390fd5b600073ffffffffffffffffffffffffffffffffffffffff168273ffffffffffffffffffffffffffffffffffffffff161415610f8e576040517f08c379a0000000000000000000000000000000000000000000000000000000008152600401610f85906118f5565b60405180910390fd5b610ffa81604051806060016040528060268152602001611de260269139600160008773ffffffffffffffffffffffffffffffffffffffff1673ffffffffffffffffffffffffffffffffffffffff1681526020019081526020016000205461113c9092919063ffffffff16565b600160008573ffffffffffffffffffffffffffffffffffffffff1673ffffffffffffffffffffffffffffffffffffffff1681526020019081526020016000208190555061108f81600160008573ffffffffffffffffffffffffffffffffffffffff1673ffffffffffffffffffffffffffffffffffffffff168152602001908152602001600020546111a090919063ffffffff16565b600160008473ffffffffffffffffffffffffffffffffffffffff1673ffffffffffffffffffffffffffffffffffffffff168152602001908152602001600020819055508173ffffffffffffffffffffffffffffffffffffffff168373ffffffffffffffffffffffffffffffffffffffff167fddf252ad1be2c89b69c2b068fc378daa952ba7f163c4a11628f55a4df523b3ef8360405161112f9190611955565b60405180910390a3505050565b6000838311158290611184576040517f08c379a000000000000000000000000000000000000000000000000000000000815260040161117b9190611833565b60405180910390fd5b506000838561119391906119fd565b9050809150509392505050565b60008082846111af91906119a7565b9050838110156111f4576040517f08c379a00000000000000000000000000000000000000000000000000000000081526004016111eb906118b5565b60405180910390fd5b8091505092915050565b600073ffffffffffffffffffffffffffffffffffffffff168273ffffffffffffffffffffffffffffffffffffffff16141561126e576040517f08c379a000000000000000000000000000000000000000000000000000000000815260040161126590611915565b60405180910390fd5b6112da81604051806060016040528060228152602001611e2d60229139600160008673ffffffffffffffffffffffffffffffffffffffff1673ffffffffffffffffffffffffffffffffffffffff1681526020019081526020016000205461113c9092919063ffffffff16565b600160008473ffffffffffffffffffffffffffffffffffffffff1673ffffffffffffffffffffffffffffffffffffffff16815260200190815260200160002081905550611332816003546114cf90919063ffffffff16565b600381905550600073ffffffffffffffffffffffffffffffffffffffff168273ffffffffffffffffffffffffffffffffffffffff167fddf252ad1be2c89b69c2b068fc378daa952ba7f163c4a11628f55a4df523b3ef836040516113969190611955565b60405180910390a35050565b600073ffffffffffffffffffffffffffffffffffffffff168173ffffffffffffffffffffffffffffffffffffffff161415611412576040517f08c379a000000000000000000000000000000000000000000000000000000000815260040161140990611895565b60405180910390fd5b8073ffffffffffffffffffffffffffffffffffffffff1660008054906101000a900473ffffffffffffffffffffffffffffffffffffffff1673ffffffffffffffffffffffffffffffffffffffff167f8be0079c531659141344cd1fd0a4f28419497f9722a3daafe3b4186f6b6457e060405160405180910390a3806000806101000a81548173ffffffffffffffffffffffffffffffffffffffff021916908373ffffffffffffffffffffffffffffffffffffffff16021790555050565b600061151183836040518060400160405280601e81526020017f536166654d6174683a207375627472616374696f6e206f766572666c6f77000081525061113c565b905092915050565b60008135905061152881611d8b565b92915050565b60008135905061153d81611da2565b92915050565b60006020828403121561155957611558611b49565b5b600061156784828501611519565b91505092915050565b6000806040838503121561158757611586611b49565b5b600061159585828601611519565b92505060206115a685828601611519565b9150509250929050565b6000806000606084860312156115c9576115c8611b49565b5b60006115d786828701611519565b93505060206115e886828701611519565b92505060406115f98682870161152e565b9150509250925092565b6000806040838503121561161a57611619611b49565b5b600061162885828601611519565b92505060206116398582860161152e565b9150509250929050565b60006020828403121561165957611658611b49565b5b60006116678482850161152e565b91505092915050565b61167981611a31565b82525050565b61168881611a43565b82525050565b60006116998261198b565b6116a38185611996565b93506116b3818560208601611a86565b6116bc81611b4e565b840191505092915050565b60006116d4602583611996565b91506116df82611b5f565b604082019050919050565b60006116f7602483611996565b915061170282611bae565b604082019050919050565b600061171a602683611996565b915061172582611bfd565b604082019050919050565b600061173d601b83611996565b915061174882611c4c565b602082019050919050565b6000611760602083611996565b915061176b82611c75565b602082019050919050565b6000611783602383611996565b915061178e82611c9e565b604082019050919050565b60006117a6602183611996565b91506117b182611ced565b604082019050919050565b60006117c9602283611996565b91506117d482611d3c565b604082019050919050565b6117e881611a6f565b82525050565b6117f781611a79565b82525050565b60006020820190506118126000830184611670565b92915050565b600060208201905061182d600083018461167f565b92915050565b6000602082019050818103600083015261184d818461168e565b905092915050565b6000602082019050818103600083015261186e816116c7565b9050919050565b6000602082019050818103600083015261188e816116ea565b9050919050565b600060208201905081810360008301526118ae8161170d565b9050919050565b600060208201905081810360008301526118ce81611730565b9050919050565b600060208201905081810360008301526118ee81611753565b9050919050565b6000602082019050818103600083015261190e81611776565b9050919050565b6000602082019050818103600083015261192e81611799565b9050919050565b6000602082019050818103600083015261194e816117bc565b9050919050565b600060208201905061196a60008301846117df565b92915050565b600060208201905061198560008301846117ee565b92915050565b600081519050919050565b600082825260208201905092915050565b60006119b282611a6f565b91506119bd83611a6f565b9250827fffffffffffffffffffffffffffffffffffffffffffffffffffffffffffffffff038211156119f2576119f1611aeb565b5b828201905092915050565b6000611a0882611a6f565b9150611a1383611a6f565b925082821015611a2657611a25611aeb565b5b828203905092915050565b6000611a3c82611a4f565b9050919050565b60008115159050919050565b600073ffffffffffffffffffffffffffffffffffffffff82169050919050565b6000819050919050565b600060ff82169050919050565b60005b83811015611aa4578082015181840152602081019050611a89565b83811115611ab3576000848401525b50505050565b60006002820490506001821680611ad157607f821691505b60208210811415611ae557611ae4611b1a565b5b50919050565b7f4e487b7100000000000000000000000000000000000000000000000000000000600052601160045260246000fd5b7f4e487b7100000000000000000000000000000000000000000000000000000000600052602260045260246000fd5b600080fd5b6000601f19601f8301169050919050565b7f42455032303a207472616e736665722066726f6d20746865207a65726f20616460008201527f6472657373000000000000000000000000000000000000000000000000000000602082015250565b7f42455032303a20617070726f76652066726f6d20746865207a65726f2061646460008201527f7265737300000000000000000000000000000000000000000000000000000000602082015250565b7f4f776e61626c653a206e6577206f776e657220697320746865207a65726f206160008201527f6464726573730000000000000000000000000000000000000000000000000000602082015250565b7f536166654d6174683a206164646974696f6e206f766572666c6f770000000000600082015250565b7f4f776e61626c653a2063616c6c6572206973206e6f7420746865206f776e6572600082015250565b7f42455032303a207472616e7366657220746f20746865207a65726f206164647260008201527f6573730000000000000000000000000000000000000000000000000000000000602082015250565b7f42455032303a206275726e2066726f6d20746865207a65726f2061646472657360008201527f7300000000000000000000000000000000000000000000000000000000000000602082015250565b7f42455032303a20617070726f766520746f20746865207a65726f20616464726560008201527f7373000000000000000000000000000000000000000000000000000000000000602082015250565b611d9481611a31565b8114611d9f57600080fd5b50565b611dab81611a6f565b8114611db657600080fd5b5056fe42455032303a207472616e7366657220616d6f756e74206578636565647320616c6c6f77616e636542455032303a207472616e7366657220616d6f756e7420657863656564732062616c616e636542455032303a2064656372656173656420616c6c6f77616e63652062656c6f77207a65726f42455032303a206275726e20616d6f756e7420657863656564732062616c616e636542455032303a206275726e20616d6f756e74206578636565647320616c6c6f77616e6365a26469706673582212207948d46f22bc4be4b2ba4b7a4335abd0b9eb42f1bb3432b460163a3d94571ac964736f6c63430008070033",
  "immutableReferences": {},
  "source": "/**\n *Submitted for verification at BscScan.com on 2021-04-20\n*/\n\n// SPDX-License-Identifier: UNLICENSED\npragma solidity ^0.8.3;\n\ninterface IBEP20 {\n  /**\n   * @dev Returns the amount of tokens in existence.\n   */\n  function totalSupply() external view returns (uint256);\n\n  /**\n   * @dev Returns the token decimals.\n   */\n  function decimals() external view returns (uint8);\n\n  /**\n   * @dev Returns the token symbol.\n   */\n  function symbol() external view returns (string memory);\n\n  /**\n   * @dev Returns the token name.\n   */\n  function name() external view returns (string memory);\n\n  /**\n   * @dev Returns the bep token owner.\n   */\n  function getOwner() external view returns (address);\n\n  /**\n   * @dev Returns the amount of tokens owned by `account`.\n   */\n  function balanceOf(address account) external view returns (uint256);\n\n  /**\n   * @dev Moves `amount` tokens from the caller's account to `recipient`.\n   *\n   * Returns a boolean value indicating whether the operation succeeded.\n   *\n   * Emits a {Transfer} event.\n   */\n  function transfer(address recipient, uint256 amount) external returns (bool);\n\n  /**\n   * @dev Returns the remaining number of tokens that `spender` will be\n   * allowed to spend on behalf of `owner` through {transferFrom}. This is\n   * zero by default.\n   *\n   * This value changes when {approve} or {transferFrom} are called.\n   */\n  function allowance(address _owner, address spender)\n    external\n    view\n    returns (uint256);\n\n  /**\n   * @dev Sets `amount` as the allowance of `spender` over the caller's tokens.\n   *\n   * Returns a boolean value indicating whether the operation succeeded.\n   *\n   * IMPORTANT: Beware that changing an allowance with this method brings the risk\n   * that someone may use both the old and the new allowance by unfortunate\n   * transaction ordering. One possible solution to mitigate this race\n   * condition is to first reduce the spender's allowance to 0 and set the\n   * desired value afterwards:\n   * https://github.com/ethereum/EIPs/issues/20#issuecomment-263524729\n   *\n   * Emits an {Approval} event.\n   */\n  function approve(address spender, uint256 amount) external returns (bool);\n\n  /**\n   * @dev Moves `amount` tokens from `sender` to `recipient` using the\n   * allowance mechanism. `amount` is then deducted from the caller's\n   * allowance.\n   *\n   * Returns a boolean value indicating whether the operation succeeded.\n   *\n   * Emits a {Transfer} event.\n   */\n  function transferFrom(\n    address sender,\n    address recipient,\n    uint256 amount\n  ) external returns (bool);\n\n  /**\n   * @dev Emitted when `value` tokens are moved from one account (`from`) to\n   * another (`to`).\n   *\n   * Note that `value` may be zero.\n   */\n  event Transfer(address indexed from, address indexed to, uint256 value);\n\n  /**\n   * @dev Emitted when the allowance of a `spender` for an `owner` is set by\n   * a call to {approve}. `value` is the new allowance.\n   */\n // SPDX-License-Identifier: UNLICENSED\n  event Approval(address indexed owner, address indexed spender, uint256 value);\n}\n/**\n * @dev Wrappers over Solidity's arithmetic operations with added overflow\n * checks.\n *\n * Arithmetic operations in Solidity wrap on overflow. This can easily result\n * in bugs, because programmers usually assume that an overflow raises an\n * error, which is the standard behavior in high level programming languages.\n * `SafeMath` restores this intuition by reverting the transaction when an\n * operation overflows.\n *\n * Using this library instead of the unchecked operations eliminates an entire\n * class of bugs, so it's recommended to use it always.\n */\nlibrary SafeMath {\n  /**\n   * @dev Returns the addition of two unsigned integers, reverting on\n   * overflow.\n   *\n   * Counterpart to Solidity's `+` operator.\n   *\n   * Requirements:\n   * - Addition cannot overflow.\n   */\n  function add(uint256 a, uint256 b) internal pure returns (uint256) {\n    uint256 c = a + b;\n    require(c >= a, 'SafeMath: addition overflow');\n\n    return c;\n  }\n\n  /**\n   * @dev Returns the subtraction of two unsigned integers, reverting on\n   * overflow (when the result is negative).\n   *\n   * Counterpart to Solidity's `-` operator.\n   *\n   * Requirements:\n   * - Subtraction cannot overflow.\n   */\n  function sub(uint256 a, uint256 b) internal pure returns (uint256) {\n    return sub(a, b, 'SafeMath: subtraction overflow');\n  }\n\n  /**\n   * @dev Returns the subtraction of two unsigned integers, reverting with custom message on\n   * overflow (when the result is negative).\n   *\n   * Counterpart to Solidity's `-` operator.\n   *\n   * Requirements:\n   * - Subtraction cannot overflow.\n   */\n  function sub(\n    uint256 a,\n    uint256 b,\n    string memory errorMessage\n  ) internal pure returns (uint256) {\n    require(b <= a, errorMessage);\n    uint256 c = a - b;\n\n    return c;\n  }\n\n  /**\n   * @dev Returns the multiplication of two unsigned integers, reverting on\n   * overflow.\n   *\n   * Counterpart to Solidity's `*` operator.\n   *\n   * Requirements:\n   * - Multiplication cannot overflow.\n   */\n  function mul(uint256 a, uint256 b) internal pure returns (uint256) {\n    // Gas optimization: this is cheaper than requiring 'a' not being zero, but the\n    // benefit is lost if 'b' is also tested.\n    // See: https://github.com/OpenZeppelin/openzeppelin-contracts/pull/522\n    if (a == 0) {\n      return 0;\n    }\n\n    uint256 c = a * b;\n    require(c / a == b, 'SafeMath: multiplication overflow');\n\n    return c;\n  }\n\n  /**\n   * @dev Returns the integer division of two unsigned integers. Reverts on\n   * division by zero. The result is rounded towards zero.\n   *\n   * Counterpart to Solidity's `/` operator. Note: this function uses a\n   * `revert` opcode (which leaves remaining gas untouched) while Solidity\n   * uses an invalid opcode to revert (consuming all remaining gas).\n   *\n   * Requirements:\n   * - The divisor cannot be zero.\n   */\n  function div(uint256 a, uint256 b) internal pure returns (uint256) {\n    return div(a, b, 'SafeMath: division by zero');\n  }\n\n  /**\n   * @dev Returns the integer division of two unsigned integers. Reverts with custom message on\n   * division by zero. The result is rounded towards zero.\n   *\n   * Counterpart to Solidity's `/` operator. Note: this function uses a\n   * `revert` opcode (which leaves remaining gas untouched) while Solidity\n   * uses an invalid opcode to revert (consuming all remaining gas).\n   *\n   * Requirements:\n   * - The divisor cannot be zero.\n   */\n  function div(\n    uint256 a,\n    uint256 b,\n    string memory errorMessage\n  ) internal pure returns (uint256) {\n    // Solidity only automatically asserts when dividing by 0\n    require(b > 0, errorMessage);\n    uint256 c = a / b;\n    // assert(a == b * c + a % b); // There is no case in which this doesn't hold\n\n    return c;\n  }\n\n  /**\n   * @dev Returns the remainder of dividing two unsigned integers. (unsigned integer modulo),\n   * Reverts when dividing by zero.\n   *\n   * Counterpart to Solidity's `%` operator. This function uses a `revert`\n   * opcode (which leaves remaining gas untouched) while Solidity uses an\n   * invalid opcode to revert (consuming all remaining gas).\n   *\n   * Requirements:\n   * - The divisor cannot be zero.\n   */\n  function mod(uint256 a, uint256 b) internal pure returns (uint256) {\n    return mod(a, b, 'SafeMath: modulo by zero');\n  }\n\n  /**\n   * @dev Returns the remainder of dividing two unsigned integers. (unsigned integer modulo),\n   * Reverts with custom message when dividing by zero.\n   *\n   * Counterpart to Solidity's `%` operator. This function uses a `revert`\n   * opcode (which leaves remaining gas untouched) while Solidity uses an\n   * invalid opcode to revert (consuming all remaining gas).\n   *\n   * Requirements:\n   * - The divisor cannot be zero.\n   */\n  function mod(\n    uint256 a,\n    uint256 b,\n    string memory errorMessage\n  ) internal pure returns (uint256) {\n    require(b != 0, errorMessage);\n    return a % b;\n // SPDX-License-Identifier: UNLICENSED\n  }\n}\n/*\n * @dev Provides information about the current execution context, including the\n * sender of the transaction and its data. While these are generally available\n * via msg.sender and msg.data, they should not be accessed in such a direct\n * manner, since when dealing with GSN meta-transactions the account sending and\n * paying for execution may not be the actual sender (as far as an application\n * is concerned).\n *\n * This contract is only required for intermediate, library-like contracts.\n */\nabstract contract Context {\n  function _msgSender() internal view virtual returns (address) {\n    return msg.sender;\n  }\n\n  function _msgData() internal view virtual returns (bytes calldata) {\n    this; // silence state mutability warning without generating bytecode - see https://github.com/ethereum/solidity/issues/2691\n    return msg.data;\n // SPDX-License-Identifier: UNLICENSED\n  }\n}\n/**\n * @dev Contract module which provides a basic access control mechanism, where\n * there is an account (an owner) that can be granted exclusive access to\n * specific functions.\n *\n * By default, the owner account will be the one that deploys the contract. This\n * can later be changed with {transferOwnership}.\n *\n * This module is used through inheritance. It will make available the modifier\n * `onlyOwner`, which can be applied to your functions to restrict their use to\n * the owner.\n */\nabstract contract Ownable is Context {\n  address private _owner;\n\n  event OwnershipTransferred(\n    address indexed previousOwner,\n    address indexed newOwner\n  );\n\n  /**\n   * @dev Initializes the contract setting the deployer as the initial owner.\n   */\n  constructor() {\n    address msgSender = _msgSender();\n    _owner = msgSender;\n    emit OwnershipTransferred(address(0), msgSender);\n  }\n\n  /**\n   * @dev Returns the address of the current owner.\n   */\n  function owner() public view returns (address) {\n    return _owner;\n  }\n\n  /**\n   * @dev Throws if called by any account other than the owner.\n   */\n  modifier onlyOwner() {\n    require(_owner == _msgSender(), 'Ownable: caller is not the owner');\n    _;\n  }\n\n  /**\n   * @dev Leaves the contract without owner. It will not be possible to call\n   * `onlyOwner` functions anymore. Can only be called by the current owner.\n   *\n   * NOTE: Renouncing ownership will leave the contract without an owner,\n   * thereby removing any functionality that is only available to the owner.\n   */\n  function renounceOwnership() public onlyOwner {\n    emit OwnershipTransferred(_owner, address(0));\n    _owner = address(0);\n  }\n\n  /**\n   * @dev Transfers ownership of the contract to a new account (`newOwner`).\n   * Can only be called by the current owner.\n   */\n  function transferOwnership(address newOwner) public onlyOwner {\n    _transferOwnership(newOwner);\n  }\n\n  /**\n   * @dev Transfers ownership of the contract to a new account (`newOwner`).\n   */\n  function _transferOwnership(address newOwner) internal {\n    require(newOwner != address(0), 'Ownable: new owner is the zero address');\n    emit OwnershipTransferred(_owner, newOwner);\n    _owner = newOwner;\n // SPDX-License-Identifier: UNLICENSED\n  }\n}\ncontract RefinableToken is Context, IBEP20, Ownable {\n  using SafeMath for uint256;\n\n  mapping(address => uint256) private _balances;\n\n  mapping(address => mapping(address => uint256)) private _allowances;\n\n  uint256 private _totalSupply;\n  uint8 public _decimals;\n  string public _symbol;\n  string public _name;\n\n  constructor() {\n    _name = 'Refinable';\n    _symbol = 'FINE';\n    _decimals = 18;\n    _totalSupply = 5 * 10**8 * 10**18; // 500m\n    _balances[msg.sender] = _totalSupply;\n\n    emit Transfer(address(0), msg.sender, _totalSupply);\n  }\n\n  /**\n   * @dev Returns the bep token owner.\n   */\n  function getOwner() external view virtual override returns (address) {\n    return owner();\n  }\n\n  /**\n   * @dev Returns the token decimals.\n   */\n  function decimals() external view virtual override returns (uint8) {\n    return _decimals;\n  }\n\n  /**\n   * @dev Returns the token symbol.\n   */\n  function symbol() external view virtual override returns (string memory) {\n    return _symbol;\n  }\n\n  /**\n   * @dev Returns the token name.\n   */\n  function name() external view virtual override returns (string memory) {\n    return _name;\n  }\n\n  /**\n   * @dev See {BEP20-totalSupply}.\n   */\n  function totalSupply() external view virtual override returns (uint256) {\n    return _totalSupply;\n  }\n\n  /**\n   * @dev See {BEP20-balanceOf}.\n   */\n  function balanceOf(address account)\n    external\n    view\n    virtual\n    override\n    returns (uint256)\n  {\n    return _balances[account];\n  }\n\n  /**\n   * @dev See {BEP20-transfer}.\n   *\n   * Requirements:\n   *\n   * - `recipient` cannot be the zero address.\n   * - the caller must have a balance of at least `amount`.\n   */\n  function transfer(address recipient, uint256 amount)\n    external\n    override\n    returns (bool)\n  {\n    _transfer(_msgSender(), recipient, amount);\n    return true;\n  }\n\n  /**\n   * @dev See {BEP20-allowance}.\n   */\n  function allowance(address owner, address spender)\n    external\n    view\n    override\n    returns (uint256)\n  {\n    return _allowances[owner][spender];\n  }\n\n  /**\n   * @dev See {BEP20-approve}.\n   *\n   * Requirements:\n   *\n   * - `spender` cannot be the zero address.\n   */\n  function approve(address spender, uint256 amount)\n    external\n    override\n    returns (bool)\n  {\n    _approve(_msgSender(), spender, amount);\n    return true;\n  }\n\n  /**\n   * @dev See {BEP20-transferFrom}.\n   *\n   * Emits an {Approval} event indicating the updated allowance. This is not\n   * required by the EIP. See the note at the beginning of {BEP20};\n   *\n   * Requirements:\n   * - `sender` and `recipient` cannot be the zero address.\n   * - `sender` must have a balance of at least `amount`.\n   * - the caller must have allowance for `sender`'s tokens of at least\n   * `amount`.\n   */\n  function transferFrom(\n    address sender,\n    address recipient,\n    uint256 amount\n  ) external override returns (bool) {\n    _transfer(sender, recipient, amount);\n    _approve(\n      sender,\n      _msgSender(),\n      _allowances[sender][_msgSender()].sub(\n        amount,\n        'BEP20: transfer amount exceeds allowance'\n      )\n    );\n    return true;\n  }\n\n  /**\n   * @dev Atomically increases the allowance granted to `spender` by the caller.\n   *\n   * This is an alternative to {approve} that can be used as a mitigation for\n   * problems described in {BEP20-approve}.\n   *\n   * Emits an {Approval} event indicating the updated allowance.\n   *\n   * Requirements:\n   *\n   * - `spender` cannot be the zero address.\n   */\n  function increaseAllowance(address spender, uint256 addedValue)\n    public\n    returns (bool)\n  {\n    _approve(\n      _msgSender(),\n      spender,\n      _allowances[_msgSender()][spender].add(addedValue)\n    );\n    return true;\n  }\n\n  /**\n   * @dev Atomically decreases the allowance granted to `spender` by the caller.\n   *\n   * This is an alternative to {approve} that can be used as a mitigation for\n   * problems described in {BEP20-approve}.\n   *\n   * Emits an {Approval} event indicating the updated allowance.\n   *\n   * Requirements:\n   *\n   * - `spender` cannot be the zero address.\n   * - `spender` must have allowance for the caller of at least\n   * `subtractedValue`.\n   */\n  function decreaseAllowance(address spender, uint256 subtractedValue)\n    public\n    returns (bool)\n  {\n    _approve(\n      _msgSender(),\n      spender,\n      _allowances[_msgSender()][spender].sub(\n        subtractedValue,\n        'BEP20: decreased allowance below zero'\n      )\n    );\n    return true;\n  }\n\n  /**\n   * @dev Destroys `amount` tokens from the caller.\n   *\n   * See {BEP20-_burn}.\n   */\n  function burn(uint256 amount) public virtual {\n    _burn(_msgSender(), amount);\n  }\n\n  /**\n   * @dev Destroys `amount` tokens from `account`, deducting from the caller's\n   * allowance.\n   *\n   * See {BEP20-_burn} and {BEP20-allowance}.\n   *\n   * Requirements:\n   *\n   * - the caller must have allowance for ``accounts``'s tokens of at least\n   * `amount`.\n   */\n  function burnFrom(address account, uint256 amount) public virtual {\n    uint256 decreasedAllowance =\n      _allowances[account][_msgSender()].sub(\n        amount,\n        'BEP20: burn amount exceeds allowance'\n      );\n\n    _approve(account, _msgSender(), decreasedAllowance);\n    _burn(account, amount);\n  }\n\n  /**\n   * @dev Moves tokens `amount` from `sender` to `recipient`.\n   *\n   * This is internal function is equivalent to {transfer}, and can be used to\n   * e.g. implement automatic token fees, slashing mechanisms, etc.\n   *\n   * Emits a {Transfer} event.\n   *\n   * Requirements:\n   *\n   * - `sender` cannot be the zero address.\n   * - `recipient` cannot be the zero address.\n   * - `sender` must have a balance of at least `amount`.\n   */\n  function _transfer(\n    address sender,\n    address recipient,\n    uint256 amount\n  ) internal {\n    require(sender != address(0), 'BEP20: transfer from the zero address');\n    require(recipient != address(0), 'BEP20: transfer to the zero address');\n\n    _balances[sender] = _balances[sender].sub(\n      amount,\n      'BEP20: transfer amount exceeds balance'\n    );\n    _balances[recipient] = _balances[recipient].add(amount);\n    emit Transfer(sender, recipient, amount);\n  }\n\n  /**\n   * @dev Destroys `amount` tokens from `account`, reducing the\n   * total supply.\n   *\n   * Emits a {Transfer} event with `to` set to the zero address.\n   *\n   * Requirements\n   *\n   * - `account` cannot be the zero address.\n   * - `account` must have at least `amount` tokens.\n   */\n  function _burn(address account, uint256 amount) internal {\n    require(account != address(0), 'BEP20: burn from the zero address');\n\n    _balances[account] = _balances[account].sub(\n      amount,\n      'BEP20: burn amount exceeds balance'\n    );\n    _totalSupply = _totalSupply.sub(amount);\n    emit Transfer(account, address(0), amount);\n  }\n\n  /**\n   * @dev Sets `amount` as the allowance of `spender` over the `owner`s tokens.\n   *\n   * This is internal function is equivalent to `approve`, and can be used to\n   * e.g. set automatic allowances for certain subsystems, etc.\n   *\n   * Emits an {Approval} event.\n   *\n   * Requirements:\n   *\n   * - `owner` cannot be the zero address.\n   * - `spender` cannot be the zero address.\n   */\n  function _approve(\n    address owner,\n    address spender,\n    uint256 amount\n  ) internal {\n    require(owner != address(0), 'BEP20: approve from the zero address');\n    require(spender != address(0), 'BEP20: approve to the zero address');\n\n    _allowances[owner][spender] = amount;\n    emit Approval(owner, spender, amount);\n  }\n}\n",
  "sourcePath": "/home/soulkiller/Desktop/TruffleProjects/TestingEnvironment/contracts/MOON.sol",
  "compiler": {
    "name": "solc",
    "version": "0.8.7+commit.e28d00a7.Emscripten.clang"
  },
  "schemaVersion": "3.4.3",
  "updatedAt": "2021-09-02T13:34:19.147Z",
  "devdoc": {
    "kind": "dev",
    "methods": {
      "allowance(address,address)": {
        "details": "See {BEP20-allowance}."
      },
      "approve(address,uint256)": {
        "details": "See {BEP20-approve}. Requirements: - `spender` cannot be the zero address."
      },
      "balanceOf(address)": {
        "details": "See {BEP20-balanceOf}."
      },
      "burn(uint256)": {
        "details": "Destroys `amount` tokens from the caller. See {BEP20-_burn}."
      },
      "burnFrom(address,uint256)": {
        "details": "Destroys `amount` tokens from `account`, deducting from the caller's allowance. See {BEP20-_burn} and {BEP20-allowance}. Requirements: - the caller must have allowance for ``accounts``'s tokens of at least `amount`."
      },
      "decimals()": {
        "details": "Returns the token decimals."
      },
      "decreaseAllowance(address,uint256)": {
        "details": "Atomically decreases the allowance granted to `spender` by the caller. This is an alternative to {approve} that can be used as a mitigation for problems described in {BEP20-approve}. Emits an {Approval} event indicating the updated allowance. Requirements: - `spender` cannot be the zero address. - `spender` must have allowance for the caller of at least `subtractedValue`."
      },
      "getOwner()": {
        "details": "Returns the bep token owner."
      },
      "increaseAllowance(address,uint256)": {
        "details": "Atomically increases the allowance granted to `spender` by the caller. This is an alternative to {approve} that can be used as a mitigation for problems described in {BEP20-approve}. Emits an {Approval} event indicating the updated allowance. Requirements: - `spender` cannot be the zero address."
      },
      "name()": {
        "details": "Returns the token name."
      },
      "owner()": {
        "details": "Returns the address of the current owner."
      },
      "renounceOwnership()": {
        "details": "Leaves the contract without owner. It will not be possible to call `onlyOwner` functions anymore. Can only be called by the current owner. NOTE: Renouncing ownership will leave the contract without an owner, thereby removing any functionality that is only available to the owner."
      },
      "symbol()": {
        "details": "Returns the token symbol."
      },
      "totalSupply()": {
        "details": "See {BEP20-totalSupply}."
      },
      "transfer(address,uint256)": {
        "details": "See {BEP20-transfer}. Requirements: - `recipient` cannot be the zero address. - the caller must have a balance of at least `amount`."
      },
      "transferFrom(address,address,uint256)": {
        "details": "See {BEP20-transferFrom}. Emits an {Approval} event indicating the updated allowance. This is not required by the EIP. See the note at the beginning of {BEP20}; Requirements: - `sender` and `recipient` cannot be the zero address. - `sender` must have a balance of at least `amount`. - the caller must have allowance for `sender`'s tokens of at least `amount`."
      },
      "transferOwnership(address)": {
        "details": "Transfers ownership of the contract to a new account (`newOwner`). Can only be called by the current owner."
      }
    },
    "version": 1
  },
  "userdoc": {
    "kind": "user",
    "methods": {},
    "version": 1
  }
}